:020000040000FA
:040000000DEF00F010
:040008000CEF18F0F1
:10001800FF00D0EF19F0000E05017B6F000E7A6F1C
:100028003EC58CF53FC58DF540C58EF541C58FF5AC
:100038008FBF23EF00F021EF00F039EF00F0000E42
:100048007B6F010E7A6F8CC501F58DC502F58EC5E3
:1000580003F58FC504F589EC1BF001C58CF502C5C5
:100068008DF503C58EF504C58FF5000E0501936F58
:10007800000E926FF3C57FF5F4C580F57A517B11B8
:10008800D8A449EF00F04BEF00F052EF00F0F7A5CD
:1000980050EF00F052EF00F06CEF00F07A517B1156
:1000A800D8A459EF00F05BEF00F061EF00F0000E0C
:1000B800656F2B0E646F65EF00F0000E656F2D0EF7
:1000C800646F64C522F6924B932B7F07D8A08007F4
:1000D8008CC501F58DC502F58EC503F58FC504F5F0
:1000E800EBEC14F001040210D8A47DEF00F07FEFD0
:1000F80000F0D6EF00F0BF0E436EFF0E446E425084
:10010800456E466A435045264450462246500AE109
:100118001A0E455CD8A093EF00F096EF00F0010EA0
:1001280097EF00F0000E0501666F676B6651671167
:10013800D8B4A1EF00F0A3EF00F0B1EF00F0220E69
:100148009225016E060E9321026ED90E036EFF0EE4
:10015800046E9DEC19F0BDEF00F0220E9225016EA1
:10016800060E9321026EE10E036EFF0E046E9DECE7
:1001780019F00501FD0E7F27FF0E80233CC513F5FE
:100188003DC514F5220E156E060E166E7FC517F5C1
:1001980080C518F548EC16F013C53CF514C53DF5B7
:1001A8000FEF06F08CC501F58DC502F58EC503F578
:1001B8008FC504F5EBEC14F001500210D8A4E7EF5A
:1001C80000F0E9EF00F040EF01F0BF0E436EFF0EC4
:1001D800446E4250456E466A435045264450462276
:1001E80046500AE11A0E455CD8A0FDEF00F000EF7A
:1001F80001F0010E01EF01F0000E0501686F696B57
:1002080068516911D8B40BEF01F00DEF01F01BEF45
:1002180001F0220E9225016E060E9321026EDD0E6C
:10022800036EFF0E046E9DEC19F027EF01F0220E0D
:100238009225016E060E9321026EE50E036EFF0EE7
:10024800046E9DEC19F00501FD0E7F27FF0E80233B
:100258003CC513F53DC514F5220E156E060E166E37
:100268007FC517F580C518F548EC16F013C53CF5A1
:1002780014C53DF50FEF06F0000E0501946F000E52
:10028800956F800E966F3F0E976F000E916F000E60
:10029800906F8CC501F58DC502F58EC503F58FC528
:1002A80004F5000E056E000E066E000E076E000EB9
:1002B800086E65EC17F0D8B064EF01F066EF01F056
:1002C800E9EF01F085EF01F094C501F595C502F558
:1002D80096C503F597C504F5000E056E000E066E6B
:1002E800200E076E410E086E04EC0DF001C594F562
:1002F80002C595F503C596F504C597F50501904B1C
:10030800912B8CC51AF58DC51BF58EC51CF58FC5AF
:100318001DF5000E056E000E066E200E076E410ECE
:10032800086E94C501F595C502F596C503F597C500
:1003380004F504EC0DF001C51EF502C51FF503C553
:1003480020F504C521F569EC14F0D8B0AEEF01F042
:10035800B0EF01F068EF01F0D0EF01F094C50FF5B0
:1003680095C510F596C511F597C512F5000E136ED3
:10037800000E146E200E156E410E166E2BEC0FF04B
:100388000FC594F510C595F511C596F512C597F5E5
:1003980005019007D8A091078CC51AF58DC51BF5E6
:1003A8008EC51CF58FC51DF594C51EF595C51FF5A1
:1003B80096C520F597C521F569EC14F0D8A0E7EFAC
:1003C80001F0E9EF01F0B2EF01F042C507F5086A64
:1003D80030EC1AF007500501816F81C57EF5670E74
:1003E8008119D8A4FAEF01F0FCEF01F022EF02F036
:1003F800F551F611D8A403EF02F005EF02F009EF6A
:1004080002F0000EF66F010EF56FF6BF16EF02F060
:10041800F65106E1F505D8B014EF02F016EF02F038
:100428001CEF02F0000E7D6F060E7C6F2BEF02F0C2
:10043800F5C57CF5F6C57DF52BEF02F0F6BF27EF85
:1004480002F029EF02F016EF02F01CEF02F0670E3F
:100458008119D8A432EF02F034EF02F063EF02F012
:1004680091AF42EF02F0FC0E905DFF0E9159D8A0BB
:1004780040EF02F042EF02F061EF02F0FF0E436E30
:10048800FF0E446E7CC545F57DC546F543504526AF
:10049800445046229051455C4650800A476E91511F
:1004A800800A4758D8A05BEF02F05DEF02F061EFD9
:1004B80002F0660E7E6F63EF02F0650E7E6F7CC5FC
:1004C80074F57DC575F5670E8119D8A46EEF02F035
:1004D80070EF02F080EF02F0660E7E19D8A477EF75
:1004E80002F079EF02F082EF02F091BF80EF02F0A4
:1004F8007EEF02F082EF02F0744B752B660E7E19C8
:10050800D8A489EF02F08BEF02F0ABEF02F091BFB5
:1005180092EF02F090EF02F09EEF02F0000E946F5F
:10052800000E956F800E966F3F0E976F000E916FBD
:10053800000E906F670E8119D8B4A5EF02F0A7EFEF
:1005480002F0ABEF02F09051742791517523000E21
:100558008B6F000E8A6F8CC582F58DC583F58EC5AD
:1005680084F58FC585F594C560F595C561F596C583
:1005780062F597C563F53CEF03F082C50FF583C5B7
:1005880010F584C511F585C512F594C513F595C503
:1005980014F596C515F597C516F52BEC0FF00FC594
:1005A80028F510C529F511C52AF512C52BF503EC58
:1005B80012F028C586F529C587F52AC588F52BC503
:1005C80089F586C501F587C502F588C503F589C58E
:1005D80004F5E6EC13F001C578F502C579F582C596
:1005E8001AF583C51BF584C51CF585C51DF594C58D
:1005F80005F595C506F596C507F597C508F586C5A9
:1006080001F587C502F588C503F589C504F504EC2D
:100618000DF001C51EF502C51FF503C520F504C57B
:1006280021F50BEC1BF01AC582F51BC583F51CC51B
:1006380084F51DC585F594C50FF595C510F596C5C6
:1006480011F597C512F5000E136E000E146E200EEC
:10065800156E410E166E2BEC0FF00FC594F510C5F4
:1006680095F511C596F512C597F505018A4B8B2BA3
:1006780074518A5D8B51800A436E7551800A4358C4
:10068800D8A049EF03F04BEF03F0C1EF02F094C597
:1006980001F595C502F596C503F597C504F5000E55
:1006A800056E000E066EA00E076E400E086E04EC76
:1006B8000DF001C586F502C587F503C588F504C5A3
:1006C80089F582C51AF583C51BF584C51CF585C552
:1006D8001DF586C51EF587C51FF588C520F589C592
:1006E80021F569EC14F0D8B07CEF03F07EEF03F04D
:1006F80089EF03F0000E0501866F000E876F000E6C
:10070800886F000E896FB2EF03F082C501F583C5CB
:1007180002F584C503F585C504F586C505F587C5C5
:1007280006F588C507F589C508F565EC17F0D8A062
:10073800A0EF03F0A2EF03F0B2EF03F0050178B1E8
:10074800A8EF03F0AAEF03F0B2EF03F0000E866FF4
:10075800000E876F000E886F000E896F8CC501F53B
:100768008DC502F58EC503F58FC504F586C505F55B
:1007780087C506F588C507F589C508F5A4EC0AF00C
:1007880001C582F502C583F503C584F504C585F561
:1007980060C594F561C595F562C596F563C597F58D
:1007A800650E05017E19D8B4DCEF03F0DEEF03F027
:1007B800E4EF03F090C576F591C577F5E8EF03F01F
:1007C800000E776F000E766F000E736F000E726F5B
:1007D800000E716F000E706F000E8B6F000E8A6F27
:1007E800E3EF04F082C50FF583C510F584C511F554
:1007F80085C512F594C513F595C514F596C515F577
:1008080097C516F52BEC0FF00FC528F510C529F57F
:1008180011C52AF512C52BF503EC12F028C586F58B
:1008280029C587F52AC588F52BC589F586C501F53B
:1008380087C502F588C503F589C504F5E6EC13F00C
:1008480001C578F502C579F50501F7B92EEF04F071
:1008580030EF04F04DEF04F078517911D8A437EF58
:1008680004F039EF04F04DEF04F0670E8119D8A4B5
:1008780040EF04F042EF04F04DEF04F077BF49EF8A
:1008880004F047EF04F04DEF04F0704B712B97EF35
:1008980004F072517311D8A454EF04F056EF04F029
:1008A80080EF04F077BF5DEF04F05BEF04F080EFBA
:1008B80004F0220E9225D96E060E9321DA6E2E0EC2
:1008C800DF6E924B932B7F07D8A08007000E736FC3
:1008D800010E726F80EF04F0220E9225D96E060E7B
:1008E8009321DA6E300EDF6E924B932B7F07D8A0E0
:1008F80080077007D8A0710770517111D8A487EFCD
:1009080004F089EF04F070EF04F0220E9225D96EFE
:10091800060E9321DA6E7851300FDF6E924B932BCF
:100928007F07D8A0800782C51AF583C51BF584C543
:100938001CF585C51DF594C505F595C506F596C53F
:1009480007F597C508F586C501F587C502F588C579
:1009580003F589C504F504EC0DF001C51EF502C5C3
:100968001FF503C520F504C521F50BEC1BF01AC5CE
:1009780082F51BC583F51CC584F51DC585F594C591
:100988000FF595C510F596C511F597C512F5000E2A
:10099800136E000E146E200E156E410E166E2BECA3
:1009A8000FF00FC594F510C595F511C596F512C54C
:1009B80097F505017607D8A077078A4B8B2B7451DA
:1009C8008A5D8B51800A436E7551800A4358D8B0AE
:1009D800F0EF04F0F2EF04F000EF05F093BFFEEF44
:1009E80004F0935109E14B0E925DD8A0FEEF04F09C
:1009F80000EF05F0F6EF03F072517311D8A407EF7A
:100A080005F009EF05F01AEF05F0F7A90EEF05F06C
:100A180010EF05F01AEF05F0220E9225D96E060E9A
:100A28009321DA6E2E0EDF6E924B932B220E9225B7
:100A3800D96E060E9321DA6E000EDF6E650E7E19F2
:100A4800D8A429EF05F02BEF05F0FDEF05F0000E17
:100A58008B6F4F0E8A6F220E8A25D96E060E8B2158
:100A6800DA6E000EDF6E000E7B6F000E7A6F91BF9C
:100A780042EF05F040EF05F04AEF05F0000E7B6FFE
:100A8800010E7A6F906D911FD8B0912B000E7D6F7B
:100A9800020E7C6F7BEF05F08A07D8A08B07220E29
:100AA8008A25D96E060E8B21DA6E90C501F591C59F
:100AB80002F5000E046E0A0E036E0DEC17F00150DD
:100AC800300FDF6E90C501F591C502F5000E046E7A
:100AD8000A0E036EABEC16F001C590F502C591F550
:100AE80005017C07D8A07D077F07D8A08007905113
:100AF8009111D8A482EF05F084EF05F050EF05F0CE
:100B08007DBF91EF05F07D5106E17C05D8B08FEFF0
:100B180005F091EF05F050EF05F08A07D8A08B0794
:100B28007A517B11D8A49BEF05F09DEF05F0A3EF58
:100B380005F0000E6B6F2B0E6A6FA7EF05F0000E25
:100B48006B6F2D0E6A6F220E8A25D96E060E8B21C9
:100B5800DA6E6100A8F5DFF47F07D8A080078A075E
:100B6800D8A08B07BF0E436EFF0E446E4250456EF1
:100B7800466A435045264450462246500AE11A0E1A
:100B8800455CD8A0CAEF05F0CDEF05F0010ECEEF19
:100B980005F0000E6E6F6F6B6E516F11D8A4D7EF12
:100BA80005F0D9EF05F0DFEF05F0000E6D6F650E6B
:100BB8006C6FE3EF05F0000E6D6F450E6C6F220E43
:100BC8008A25D96E060E8B21DA6E6100B0F5DFF446
:100BD8007F07D8A08007220E9225016E060E93216A
:100BE800026E220E8A25036E060E8B21046E9DEC82
:100BF80019F03CC513F53DC514F5220E156E060E09
:100C0800166E7FC517F580C518F548EC16F013C5A4
:100C18003CF514C53DF51200610028F5D9F46100D2
:100C28002CF5DAF4610078F34EF5610074F34FF5B2
:100C3800610038F5F6F461003CF5F7F4000EF86E43
:100C4800140EF76403D00800F55005D0F6C4E9F493
:100C5800F7C4EAF4EF50250AD8A435EF06F037EFC9
:100C680006F06FEF0AF0610028F5D9F461002CF561
:100C7800DAF4DE2A000EDD22000E0501F46F000E04
:100C8800F36FF3C5F7F5F4C5F8F5F569F669610092
:100C980028F5D9F461002CF5DAF4610078F34EF503
:100CA800610074F34FF5610038F5F6F461003CF526
:100CB800F7F4000EF86E140EF76403D00800F55030
:100CC80005D0F6C4E9F4F7C4EAF4EF502A0AD8A428
:100CD80070EF06F072EF06F0A6EF06F0610028F557
:100CE800D9F461002CF5DAF4DE2A000EDD22610069
:100CF80030F5D9F4610034F5DAF461007CF34EF58F
:100D0800020EDE2661007CF34FF5000EDD22610045
:100D180038F5D9F461003CF5DAF4610078F3F3F5BD
:100D2800610074F3F4F50501F4BF9FEF06F09DEF41
:100D380006F005EF07F0F781F36DF41FD8B0F42B38
:100D480005EF07F0610028F5D9F461002CF5DAF415
:100D5800610078F308F5610074F309F5F8EC10F018
:100D680008C5F3F509C5F4F5C3EF06F0610028F5E9
:100D7800D9F461002CF5DAF4DE2A000EDD22D00E5B
:100D88004E6EFF0E4F6E610028F5D9F461002CF508
:100D9800DAF4610078F350F5610074F351F56100FD
:100DA80040F5F6F4610044F5F7F4000EF86E140E01
:100DB800F76403D00800F55005D0F6C4E9F4F7C489
:100DC800EAF4EF50526E536A4E5052264F50532257
:100DD80053500AE10A0E525CD8A0F5EF06F0F8EF7E
:100DE80006F0010EF9EF06F0000E05019A6F9B6BF5
:100DF8009A519B11D8A403EF07F005EF07F0BAEF5B
:100E080006F0610028F5D9F461002CF5DAF46100E8
:100E180078F34EF5610074F34FF5610038F5F6F498
:100E280061003CF5F7F4000EF86E140EF76403D079
:100E38000800F55005D0F6C4E9F4F7C4EAF4EF5019
:100E48002E0AD8A42AEF07F02CEF07F0E7EF07F0F7
:100E5800000E0501F66F000EF56F610028F5D9F454
:100E680061002CF5DAF4DE2A000EDD22610028F597
:100E7800D9F461002CF5DAF4610078F34EF56100DD
:100E880074F34FF5610038F5F6F461003CF5F7F4BA
:100E9800000EF86E140EF76403D00800F55005D064
:100EA800F6C4E9F4F7C4EAF4EF502A0AD8A45FEFCD
:100EB80007F061EF07F088EF07F0610028F5D9F433
:100EC80061002CF5DAF4DE2A000EDD22610030F52F
:100ED800D9F4610034F5DAF461007CF34EF5020EC2
:100EE800DE2661007CF34FF5000EDD22610038F547
:100EF800D9F461003CF5DAF4610078F3F5F56100A6
:100F080074F3F6F5E7EF07F0610028F5D9F461000E
:100F18002CF5DAF4610078F308F5610074F309F54B
:100F2800F8EC10F008C5F5F509C5F6F5A5EF07F0DA
:100F3800610028F5D9F461002CF5DAF4DE2A000EF8
:100F4800DD22D00E4E6EFF0E4F6E610028F5D9F4EB
:100F580061002CF5DAF4610078F350F5610074F360
:100F680051F5610040F5F6F4610044F5F7F4000E20
:100F7800F86E140EF76403D00800F55005D0F6C4D7
:100F8800E9F4F7C4EAF4EF50526E536A4E50522611
:100F98004F50532253500AE10A0E525CD8A0D7EFA3
:100FA80007F0DAEF07F0010EDBEF07F0000E05019E
:100FB8009C6F9D6B9C519D11D8A4E5EF07F0E7EF5E
:100FC80007F09CEF07F0610028F5D9F461002CF5D3
:100FD800DAF4610078F34EF5610074F34FF56100BF
:100FE80038F5F6F461003CF5F7F4000EF86E140ECF
:100FF800F76403D00800F55005D0F6C4E9F4F7C447
:10100800EAF4EF50506E5050076E086A30EC1AF050
:1010180007500501A46FA451D8B415EF08F017EFD5
:1010280008F077EF08F0610028F5D9F461002CF595
:10103800DAF4610078F34EF5610074F34FF5010EB0
:101048004E26000E4F22610038F5F6F461003CF59B
:10105800F7F4000EF86E140EF76403D00800F5508C
:1010680005D0F6C4E9F4F7C4EAF4EF50506E5050D6
:10107800076E086A30EC1AF007500501A56FA551F4
:10108800D8B449EF08F04BEF08F077EF08F06100AB
:1010980028F5D9F461002CF5DAF4610078F34EF5FF
:1010A800610074F34FF5020E4E26000E4F226100C8
:1010B80038F5F6F461003CF5F7F4000EF86E140EFE
:1010C800F76403D00800F55005D0F6C4E9F4F7C476
:1010D800EAF4EF50506E5050076E086A30EC1AF080
:1010E80007500501A66F660EA419D8A47EEF08F074
:1010F80080EF08F0E2EF08F0610028F5D9F461000C
:101108002CF5DAF4610078F34EF5610074F34FF5CD
:10111800610038F5F6F461003CF5F7F4000EF86E5E
:10112800140EF76403D00800F55005D0F6C4E9F4AE
:10113800F7C4EAF4EF500501A76F610028F5D9F468
:1011480061002CF5DAF4DE2A000EDD22610030F5AC
:10115800D9F4610034F5DAF461007CF34EF5040E3D
:10116800DE2661007CF34FF5000EDD22610038F5C4
:10117800D9F461003CF5DAF4610078F3A0F5610078
:1011880078F3A1F5610078F3A2F5610078F3A3F58F
:1011980048C53CF549C53DF5A0C53EF5A1C53FF597
:1011A800A2C540F5A3C541F5A7C542F50FEC00F06F
:1011B8003CC548F53DC549F5A3EF0AF0A40E016EFC
:1011C800050E026EF50E036EFF0E046E000E066E1F
:1011D800020E056E6AEC15F001500210D8A4F7EF64
:1011E80008F0F9EF08F0C6EF09F0610028F5D9F426
:1011F80061002CF5DAF4610078F34EF5610074F3C0
:101208004FF5010E4E26000E4F22610038F5F6F418
:1012180061003CF5F7F4000EF86E140EF76403D085
:101228000800F55005D0F6C4E9F4F7C4EAF4EF5025
:101238000501A76FBF0E4E6EFF0E4F6E610028F5B9
:10124800D9F461002CF5DAF4610078F350F5610007
:1012580074F351F5610040F5F6F4610044F5F7F4D4
:10126800000EF86E140EF76403D00800F55005D090
:10127800F6C4E9F4F7C4EAF4EF50526E536A4E50DC
:1012880052264F50532253500AE11A0E525CD8A0EE
:1012980050EF09F053EF09F0010E54EF09F0000E7A
:1012A80005019E6F9F6B9E519F11D8B45EEF09F0A8
:1012B80060EF09F084EF09F0610030F5D9F46100BE
:1012C80034F5DAF461007CF34EF5040EDE26610095
:1012D8007CF34FF5000EDD22610038F5D9F461008A
:1012E8003CF5DAF4610078F3A0F5610078F3A1F534
:1012F800610078F3A2F5610078F3A3F5A6EF09F091
:10130800610030F5D9F4610034F5DAF461007CF35A
:101318004EF5040EDE2661007CF34FF5000EDD224B
:10132800610038F5D9F461003CF5DAF4610078F32E
:10133800A0F5610078F3A1F5610078F3A2F56100EA
:1013480078F3A3F5020E610028F5D9F461002CF5B5
:10135800DAF4DE26000EDD2248C53CF549C53DF528
:10136800A0C53EF5A1C53FF5A2C540F5A3C541F509
:10137800A7C542F50FEC00F03CC548F53DC549F559
:10138800A3EF0AF0610028F5D9F461002CF5DAF42E
:10139800610078F34EF5610074F34FF5610038F59C
:1013A800F6F461003CF5F7F4000EF86E140EF764DD
:1013B80003D00800F55005D0F6C4E9F4F7C4EAF400
:1013C800EF506E0AD8A4EBEF09F0EDEF09F024EF27
:1013D8000AF0610028F5D9F461002CF5DAF4DE2A68
:1013E800000EDD22610030F5D9F4610034F5DAF43D
:1013F80061007CF34EF5020EDE2661007CF34FF5AA
:10140800000EDD22610038F5D9F461003CF5DAF40C
:10141800610078F398F5610074F399F5610060F65E
:10142800D9F4610064F6DAF4610080F8DEF4610052
:1014380084F8DDF4000E496E000E486EA3EF0AF042
:10144800610028F5D9F461002CF5DAF4610078F32D
:101458004EF5610074F34FF5610038F5F6F461005C
:101468003CF5F7F4000EF86E140EF76403D008008C
:10147800F55005D0F6C4E9F4F7C4EAF4EF50250AAC
:10148800D8A449EF0AF04BEF0AF064EF0AF06100C4
:1014980028F5D9F461002CF5DAF4DE2A000EDD22F5
:1014A800000E046E250E036E48C505F549C506F500
:1014B80059EC18F0000E496E010E486EA3EF0AF0C1
:1014C800610028F5D9F461002CF5DAF4DE2A000E63
:1014D800DD221EEF0AF0610028F5D9F461002CF531
:1014E800DAF4610078F34EF5610074F34FF56100AA
:1014F80038F5F6F461003CF5F7F4000EF86E140EBA
:10150800F76403D00800F55005D0F6C4E9F4F7C431
:10151800EAF4EF50506E5050036E046A48C505F562
:1015280049C506F559EC18F0610028F5D9F46100B1
:101538002CF5DAF4DE2A000EDD225EEF0AF0120046
:101548000450800B0D6E045004240F6E03AEAFEFF1
:101558000AF0B1EF0AF0B2EF0AF00F800F50D8B4DA
:10156800B8EF0AF0BAEF0AF0CFEF0AF00F28D8A4C4
:10157800C0EF0AF0C2EF0AF0CAEF0AF0000E016EDF
:10158800000E026E000E036E000E046E038E000E37
:10159800046ED7EF0AF0000E016E000E026E000E08
:1015A800036E000E046E0850800B0E6E0D500E1860
:1015B800D8B4E1EF0AF0E3EF0AF0E4EF0AF00D8C9B
:1015C800085008240E6E07AEECEF0AF0EEEF0AF0B2
:1015D800EFEF0AF00E800E50D8B4F5EF0AF0F7EFEF
:1015E8000AF00CEF0BF00E28D8A4FDEF0AF0FFEF7D
:1015F8000AF007EF0BF0000E056E000E066E000EE7
:10160800076E000E086E078E000E086E14EF0BF0C2
:10161800000E056E000E066E000E076E000E086EB8
:101628000F500E5CD8B01BEF0BF01DEF0BF044EF22
:101638000BF00DAC22EF0BF024EF0BF026EF0BF0C4
:10164800800E0D1A0FC510F50EC50FF510C50EF555
:1016580001C510F505C501F510C505F502C510F55C
:1016680006C502F510C506F503C510F507C503F54F
:1016780010C507F504C510F508C504F510C508F52B
:10168800000E106E0F500EC509F50A6A095E000EAD
:101698000A5A0ABE59EF0BF00A5009E11A0E095C02
:1016A800D8A059EF0BF05BEF0BF092EF0BF0015065
:1016B800021003100410D8A464EF0BF067EF0BF0CE
:1016C800010E68EF0BF0000E106E000E016E000E9A
:1016D800026E000E036E000E046E0EC50FF59BEF32
:1016E8000BF010A07AEF0BF07CEF0BF082EF0BF011
:1016F800D89010300109106E84EF0BF0D89010329A
:1017080001A089EF0BF08BEF0BF08CEF0BF0108E34
:10171800043404320332023201320F2A0E500F5CB5
:10172800D8A099EF0BF09BEF0BF075EF0BF00DBC09
:10173800A0EF0BF0A2EF0BF0E2EF0BF00F50D8A4E4
:10174800A8EF0BF0AAEF0BF0B4EF0BF0000E016E50
:10175800000E026E000E036E000E046E03EF0DF015
:101768000550012606500222075003220850042281
:1017780004A0C1EF0BF0C3EF0BF06FEF0CF010A05B
:10178800C8EF0BF0CAEF0BF0D0EF0BF0D890103089
:101798000109106ED2EF0BF0D890103201A0D7EFEC
:1017A8000BF0D9EF0BF0DAEF0BF0108E04340432A3
:1017B8000332023201320F2A6FEF0CF00550015C40
:1017C80006500258075003580450800A096E085002
:1017D800800A0958D8B0F3EF0BF0F5EF0BF020EFC3
:1017E8000CF00150055C096E025006580A6E035051
:1017F80007580B6E045008580C6EFF0E0924016E32
:10180800FF0E0A20026EFF0E0B20036EFF0E0C2047
:10181800046E800E0D1A106C1050D8A416EF0CF040
:1018280018EF0CF028EF0CF0010E0126000E022232
:101838000322042228EF0CF00550015E0650025ADC
:101848000750035A0850045A01500210031004109C
:10185800D8A431EF0CF033EF0CF068EF0CF0105017
:10186800D8A439EF0CF03BEF0CF068EF0CF0000E49
:10187800016E000E026E000E036E000E046E03EF82
:101888000DF0D890013602360336043610AE4FEF0D
:101898000CF051EF0CF052EF0CF0018010A057EF54
:1018A8000CF059EF0CF05DEF0CF0D88010365FEFBC
:1018B8000CF0D89010360F50D8B465EF0CF067EFE5
:1018C8000CF068EF0CF00F0603AE6DEF0CF06FEF45
:1018D8000CF045EF0CF0000E0E6E10AE76EF0CF02B
:1018E80078EF0CF090EF0CF010C509F57F0E091693
:1018F800D8B481EF0CF083EF0CF087EF0CF0010EF9
:101908000E6E90EF0CF001A08CEF0CF08EEF0CF047
:1019180090EF0CF083EF0CF00E50D8B496EF0CF06B
:1019280098EF0CF0C3EF0CF0010E0126000E022216
:101938000322042204A0A3EF0CF0A5EF0CF0C3EFE0
:101948000CF001C509F502C50AF503C50BF504C578
:101958000CF50C340C320B320A32093209C501F588
:101968000AC502F50BC503F50CC504F50F28D8B454
:10197800C0EF0CF0C2EF0CF0C3EF0CF00F2A0F28E9
:10198800D8B4C9EF0CF0CBEF0CF0D3EF0CF00F503C
:10199800D8A4D1EF0CF0D3EF0CF0E5EF0CF0000E6B
:1019A800016E000E026E000E036E000E046E0F50E4
:1019B800D8A4E1EF0CF0E3EF0CF0E5EF0CF0000E2B
:1019C8000D6E0FA0EAEF0CF0ECEF0CF0EFEF0CF05F
:1019D800038EF0EF0CF0039ED8900F30046E0DAE1E
:1019E800F8EF0CF0FAEF0CF0FBEF0CF0048E01C5E9
:1019F80001F502C502F503C503F504C504F5120097
:101A08000450800B0D6E04500424136E03AE0FEFC8
:101A18000DF011EF0DF012EF0DF013801350D8B444
:101A280018EF0DF01AEF0DF02DEF0DF01328D8A4D4
:101A380020EF0DF022EF0DF02AEF0DF0000E016EF1
:101A4800000E026E000E036E000E046E038E35EF5C
:101A58000DF0000E016E000E026E000E036E000EF9
:101A6800046E0850800B0D1A08500824126E07AE39
:101A780040EF0DF042EF0DF043EF0DF012801250E1
:101A8800D8B449EF0DF04BEF0DF05EEF0DF01228D2
:101A9800D8A451EF0DF053EF0DF05BEF0DF0000EF1
:101AA800056E000E066E000E076E000E086E078E9D
:101AB80066EF0DF0000E056E000E066E000E076E46
:101AC800000E086E1250D8B46CEF0DF06EEF0DF0EA
:101AD80076EF0DF01350D8A474EF0DF076EF0DF0FB
:101AE80080EF0DF0000E016E000E026E000E036E08
:101AF800000E046E2AEF0FF0075001026100CCF3CC
:101B080018F56100D0F319F518500E6E0F6A106AB7
:101B1800116A1950146E156A166A176A065002027D
:101B28006100CCF318F56100D0F319F518500E26B2
:101B3800000E0F221022112219501426000E152211
:101B480016221722055003026100CCF318F5610034
:101B5800D0F319F518500E26000E0F22102211226C
:101B680019501426000E15221622172210C511F539
:101B78000FC510F50EC50FF50E6A0550020261007B
:101B8800CCF318F56100D0F319F518500E2619504A
:101B98000F22000E1022000E1122065001026100D1
:101BA800CCF318F56100D0F319F518500E2619502A
:101BB8000F22000E1022000E112210C511F50FC5BC
:101BC80010F50EC50FF50E6A055001026100CCF341
:101BD80018F56100D0F319F518500E2619500F2288
:101BE800000E1022000E1122075002026100CCF3F1
:101BF80018F56100D0F319F518501426195015225C
:101C0800000E1622000E1722065003026100CCF3C4
:101C180018F56100D0F319F518501426195015223B
:101C2800000E1622000E1722075003026100CCF3A3
:101C380018F56100D0F319F51850096E19500A6E9D
:101C48000B6A0C6A0BC50CF50AC50BF509C50AF534
:101C5800096A095014260A5015220B5016220C50F6
:101C680017220EC509F50FC50AF510C50BF511C5E4
:101C78000CF5190E45EF0EF0D8900C320B320A32E3
:101C88000932E82E40EF0EF0095014260A501522AA
:101C98000B5016220C50172210C511F50FC510F560
:101CA8000EC50FF50E6A125013C509F50A6A092602
:101CB800000E0A22820E0924186EFF0E0A20196EE1
:101CC8007BEF0EF0D890143615361636173611AE4F
:101CD80070EF0EF072EF0EF073EF0EF01480D890E4
:101CE8000E360F36103611361806D8A0190616AE5D
:101CF80080EF0EF082EF0EF066EF0EF0000E126E1F
:101D080011AE89EF0EF08BEF0EF0AFEF0EF0FF0E75
:101D18000E14096EFF0E0F140A6EFF0E10140B6ED0
:101D28007F0E11140C6E09500A100B100C10D8B449
:101D3800A0EF0EF0A2EF0EF0A6EF0EF0010E126E5D
:101D4800AFEF0EF014A0ABEF0EF0ADEF0EF0AFEF6B
:101D58000EF0A2EF0EF01250D8B4B5EF0EF0B7EFB8
:101D68000EF0DBEF0EF0010E1426000E15221622DF
:101D7800172217A0C2EF0EF0C4EF0EF0DBEF0EF043
:101D880014C509F515C50AF516C50BF517C50CF5E3
:101D98000C340C320B320A32093209C514F50AC563
:101DA80015F50BC516F50CC517F5184A192A19BEED
:101DB800E6EF0EF0195008E11828D8A0E6EF0EF06B
:101DC800E8EF0EF0F2EF0EF0000E146E000E156E36
:101DD800800E166E7F0E176E20EF0FF019BEFFEF04
:101DE8000EF0195006E11804D8B0FDEF0EF0FFEF21
:101DF8000EF00BEF0FF0000E146E000E156E000EB5
:101E0800166E000E176E000E0D6E20EF0FF018C53F
:101E180013F5FF0E1416FF0E15167F0E1616000E7C
:101E2800171613A01AEF0FF01CEF0FF01DEF0FF0AD
:101E3800168ED8901330176E0D50171214C501F571
:101E480015C502F516C503F517C504F5120012509D
:101E5800800B1F6E12501224266E11AE36EF0FF053
:101E680038EF0FF039EF0FF026802650D8B43FEF47
:101E78000FF041EF0FF056EF0FF02628D8A447EFE8
:101E88000FF049EF0FF051EF0FF0000E0F6E000E3C
:101E9800106E000E116E000E126E118E000E126E74
:101EA8005EEF0FF0000E0F6E000E106E000E116E3A
:101EB800000E126E1650800B1F1A16501624276E2D
:101EC80015AE69EF0FF06BEF0FF06CEF0FF0278096
:101ED8002750D8B472EF0FF074EF0FF089EF0FF0BE
:101EE8002728D8A47AEF0FF07CEF0FF084EF0FF0DB
:101EF800000E136E000E146E000E156E000E166E98
:101F0800158E000E166E91EF0FF0000E136E000E78
:101F1800146E000E156E000E166E13501410151068
:101F28001610D8A49AEF0FF09CEF0FF0B4EF0FF053
:101F3800000E0F6E000E106E000E116E000E126E67
:101F4800800E11127F0E12121F5012120FC50FF5BC
:101F580010C510F511C511F512C512F5F7EF10F0FF
:101F68002650D8A4BAEF0FF0BCEF0FF0C6EF0FF071
:101F7800000E0F6E000E106E000E116E000E126E27
:101F8800F7EF10F0275026C517F5186A175E000EF0
:101F9800185A7F0E1724206E000E1820216E0FC5C8
:101FA8001BF510C51CF511C51DF512C51EF5000E53
:101FB8000F6E000E106E000E116E000E126E000EE7
:101FC800226E000E236E000E246E000E256E000E8B
:101FD800276E27EF10F02750D8B4F5EF0FF0F7EF82
:101FE8000FF00EEF10F0D8901B361C361D361E363B
:101FF800D8900F3610361136123625AE06EF10F08F
:1020080008EF10F009EF10F00F80D8902236233631
:102018002436253613501B5C14501C5815501D5877
:1020280016501E58D8A01BEF10F01DEF10F026EF29
:1020380010F0258C13501B5E14501C5A15501D5A55
:1020480016501E5A272A190E27642DEF10F02FEF6D
:1020580010F0EFEF0FF01B501C101D101E10D8B41D
:1020680038EF10F03AEF10F052EF10F0228052EFF4
:1020780010F0D8900F3610361136123625AE47EFCD
:1020880010F049EF10F04AEF10F00F80D890223688
:102098002336243625362006D8A0210611AE57EF60
:1020A80010F059EF10F03DEF10F0000E276E25AE3E
:1020B80060EF10F062EF10F086EF10F0FF0E2214C0
:1020C800176EFF0E2314186EFF0E2414196E7F0E60
:1020D80025141A6E1750181019101A10D8B477EF63
:1020E80010F079EF10F07DEF10F0010E276E86EFFB
:1020F80010F00FA082EF10F084EF10F086EF10F0D0
:1021080079EF10F02750D8B48CEF10F08EEF10F064
:10211800B2EF10F0010E0F26000E1022112212222B
:1021280012A099EF10F09BEF10F0B2EF10F00FC56E
:1021380017F510C518F511C519F512C51AF51A3491
:102148001A3219321832173217C50FF518C510F59B
:1021580019C511F51AC512F5204A212A21BEBDEF6D
:1021680010F0215008E12028D8A0BDEF10F0BFEFF3
:1021780010F0CAEF10F0000E216E2068000E0F6EEE
:10218800000E106E000E116E000E126E21BED7EFFB
:1021980010F0215006E12004D8B0D5EF10F0D7EFA9
:1021A80010F0E5EF10F0000E216E000E206E000E0C
:1021B8000F6E000E106E000E116E000E126E000EE5
:1021C8001F6E20C526F526A0ECEF10F0EEEF10F0FC
:1021D800F1EF10F0118EF2EF10F0119ED89026302A
:1021E800126EA8EF0FF01200000E166E000E156E9C
:1021F800000E0F6E000E0E6E04EF11F0084A092A49
:10220800010E146E610020F4F6F4610024F4F7F472
:10221800000EF86E140EF76403D00800F55005D0D0
:10222800F6C4E9F4F7C4EAF4EF50200AD8B41FEF73
:1022380011F021EF11F04BEF11F0F70E0A6EFF0EBF
:102248000B6E610020F4F6F4610024F4F7F4000E3C
:10225800F86E140EF76403D00800F55005D0F6C4E4
:10226800E9F4F7C4EAF4EF500C6E0D6A0A500C2634
:102278000B500D220D5009E1050E0C5CD8A047EF5C
:1022880011F049EF11F04BEF11F0000E146E14C568
:1022980010F5116A10501110D8A455EF11F057EF2E
:1022A80011F002EF11F061EF11F0000E0F6E010E48
:1022B8000E6E084A092AB2EF11F0610020F4F6F414
:1022C800610024F4F7F4000EF86E140EF76403D0DE
:1022D8000800F55005D0F6C4E9F4F7C4EAF4EF5065
:1022E8000A6E0B6A0B50000AD8B47DEF11F0B2EFFA
:1022F80011F00A502B0AD8B45DEF11F0060AD8B4D1
:1023080059EF11F0B2EF11F015C501F516C502F538
:10231800000E046E0A0E036E08EC1CF0610020F437
:10232800F6F4610024F4F7F4000EF86E140EF76466
:1023380003D00800F55005D0F6C4E9F4F7C4EAF470
:10234800EF500A6E0A50015E000E025A300E012448
:10235800156E000E0220166E5DEF11F0D00E0A6E9B
:10236800FF0E0B6E610020F4F6F4610024F4F7F41C
:10237800000EF86E140EF76403D00800F55005D06F
:10238800F6C4E9F4F7C4EAF4EF500C6E0D6A0A508B
:102398000C260B500D220D500AE10A0E0C5CD8A039
:1023A800D8EF11F0DBEF11F0010EDCEF11F0000EA9
:1023B800126E136A12501310D8A4E5EF11F0E7EF6C
:1023C80011F088EF11F00E500F10D8A4EEEF11F0B5
:1023D800F0EF11F0FEEF11F015C50AF516C50BF573
:1023E8000A1E0B1E0A4A0B2A0AC508F50BC509F571
:1023F80002EF12F015C508F516C509F5120018C642
:1024080038F519C639F51AC63AF51BC63BF528C57D
:1024180038F529C539F52AC53AF52BC53BF5810E9E
:102428002C6EFF0E2D6E38C52EF539C52FF53AC521
:1024380030F53BC531F5180E27EF12F0D890313240
:1024480030322F322E32E82E22EF12F02E502C246A
:10245800366E000E2D20376E37BE3CEF12F0375027
:1024680009E1170E365CD8A03CEF12F03EEF12F0EF
:1024780048EF12F028C528F529C529F52AC52AF5F7
:102488002BC52BF50BEF13F037BE4DEF12F04FEFC6
:1024980012F0BFEF12F036C52CF5FF0E2D6EFF0EB1
:1024A8002E6E7F0E2F6E000E306E2C665EEF12F0D1
:1024B80066EF12F0303430322F322E322D322C2E7D
:1024C80059EF12F02DC532F52EC533F52FC534F569
:1024D80030C535F5325038142C6E335039142D6E02
:1024E80034503A142E6E35503B142F6E2C502D104C
:1024F8002E102F10D8A483EF12F085EF12F087EF7B
:1025080012F03EEF12F038C52CF539C52DF53AC555
:102518002EF53BC52FF5200E97EF12F0D8902F32ED
:102528002E322D322C32E82E92EF12F02C502D1034
:102538002E102F10D8B4A3EF12F0A5EF12F0ADEFC4
:1025480012F0325038263350392234503A2235505E
:102558003B22321C2C6E331C2D6E341C2E6E351C07
:102568002F6E2C5038162D5039162E503A162F50E3
:102578003B1603EF13F038C52CF539C52DF53AC5D0
:102588002EF53BC52FF5200ECFEF12F0D8902F3245
:102598002E322D322C32E82ECAEF12F02C502D108C
:1025A8002E102F10D8A4DBEF12F0DDEF12F0E7EFBA
:1025B80012F0000E386E000E396E000E3A6E000EE4
:1025C8003B6E03EF13F0D89038342C6E39342D6EEF
:1025D8003A342E6E3B342F6E2C502D102E102F10A7
:1025E800D8B4F9EF12F0FBEF12F003EF13F0000E7E
:1025F800386E000E396E800E3A6EBF0E3B6E38C5CF
:1026080028F539C529F53AC52AF53BC52BF5120039
:10261800096E0950D8B413EF13F015EF13F037EF24
:1026280013F004BE1CEF13F01AEF13F037EF13F09A
:1026380001C505F502C506F503C507F504C508F586
:10264800051E061E071E081E052A000E0622072262
:10265800082205C50BF506C50CF507C50DF508C517
:102668000EF53FEF13F001C50BF502C50CF503C5D8
:102678000DF504C50EF50150021003100410D8A47E
:1026880048EF13F04AEF13F054EF13F0000E016E09
:10269800000E026E000E036E000E046EE5EF13F0DE
:1026A800960E0A6E5EEF13F00A2AD8900E320D329B
:1026B8000C320B32000E0B14056E000E0C14066E55
:1026C800000E0D14076EFE0E0E14086E055006104F
:1026D80007100810D8A473EF13F075EF13F058EF34
:1026E80013F083EF13F00A2A010E0B26000E0C22BA
:1026F8000D220E22D8900E320D320C320B32000E03
:102708000B14056E000E0C14066E000E0D14076EE9
:10271800FF0E0E14086E0550061007100810D8A4F6
:1027280098EF13F09AEF13F077EF13F0A2EF13F08E
:102738000A06D8900B360C360D360E360DBEA7EFAE
:1027480013F0A9EF13F0B1EF13F0020E0A60AFEF28
:1027580013F0B1EF13F09CEF13F00AB0B6EF13F0DB
:10276800B8EF13F0B9EF13F00D9ED8900A320AC5EE
:1027780005F5066A076A086A05C508F5076A066A5C
:10278800056A05500B1206500C1207500D1208501E
:102798000E120950D8B4D3EF13F0D5EF13F0DDEFD4
:1027A80013F004BEDCEF13F0DAEF13F0DDEF13F0F3
:1027B8000E8E0BC501F50CC502F50DC503F50EC54A
:1027C80004F51200033404340A6E0A50D8A4EFEF5B
:1027D80013F0F1EF13F0FBEF13F0000E016E000E93
:1027E800026E000E036E000E046E68EF14F001C551
:1027F80005F502C506F503C507F504C508F5200E5D
:102808000BEF14F0D8900832073206320532E82E62
:1028180006EF14F00550096E038EFF0E0116FF0E29
:102828000216FF0E0316000E0416960E0A5E0ABE66
:1028380022EF14F020EF14F038EF14F00A50800A59
:10284800970FD8B02AEF14F02CEF14F02EEF14F0F5
:10285800F1EF13F0D89004320332023201320A3E0B
:102868002EEF14F050EF14F01F0E0A643EEF14F030
:1028780040EF14F048EF14F0F1EF13F0D890013660
:102888000236033604360A060A50D8A44EEF14F06E
:1028980050EF14F042EF14F00950D8B456EF14F08A
:1028A80058EF14F060EF14F0041E031E021E016CB2
:1028B800000E02220322042201C501F502C502F519
:1028C80003C503F504C504F51200000E1A14226EA0
:1028D800000E1B14236E800E1C14246E7F0E1D1414
:1028E800256E2250231024102510D8A47EEF14F052
:1028F80080EF14F088EF14F0000E1A6E000E1B6EB5
:10290800000E1C6E000E1D6E000E1E14226E000EB0
:102918001F14236E800E2014246E7F0E2114256E42
:102928002250231024102510D8A49DEF14F09FEFF7
:1029380014F0A7EF14F0000E1E6E000E1F6E000EAE
:10294800206E000E216E1DAEACEF14F0AEEF14F049
:10295800B7EF14F01A6C1B1ED8B01B2A1C1ED8B077
:102968001C2A800E1D5621AEBCEF14F0BEEF14F0E9
:10297800C7EF14F01E6C1F1ED8B01F2A201ED8B037
:10298800202A800E2156000E1A1A000E1B1A000E5D
:102998001C1A800E1D1A000E1E1A000E1F1A000E99
:1029A800201A800E211A1E501A5C1F501B582050E6
:1029B8001C5821501D58D8B0E4EF14F0E6EF14F07D
:1029C800E9EF14F0D890EAEF14F0D88012001CC692
:1029D8000BF51DC60CF51EC60DF51FC60EF501C577
:1029E8000BF502C50CF503C50DF504C50EF50BC5B1
:1029F80005F50CC506F50DC507F50EC508F5180E45
:102A08000BEF15F0D8900832073206320532E82E5F
:102A180006EF15F00550096E0A6A09500A10D8A485
:102A280018EF15F01AEF15F03AEF15F0D8900B34AF
:102A3800056E0C34066E0D34076E0E34086E0550A4
:102A4800061007100810D8A42CEF15F02EEF15F07B
:102A580034EF15F0000E026E020E016E69EF15F0EC
:102A6800000E026E030E016E69EF15F009280A10B8
:102A7800D8A441EF15F043EF15F065EF15F00BC53D
:102A880005F50CC506F50DC507F50EC508F5090EC3
:102A9800D8900536063607360836E82E4CEF15F07E
:102AA8000550061007100810D8B45DEF15F060EF58
:102AB80015F0010E61EF15F0000E016E026A69EF64
:102AC80015F0000E026E040E016E120001C508F525
:102AD80002C509F503C50AF504C50BF50506D8A016
:102AE8000606052806E10628D8A47DEF15F07FEF35
:102AF80015F08CEF15F0000E026E000E016EE3EF7C
:102B080015F0084A092A0A4A0B2A0506D8A006061B
:102B1800610020F4D9F4610024F4DAF4DF50D8B469
:102B280098EF15F09AEF15F0CDEF15F0610028F445
:102B3800F6F461002CF4F7F4F86A0800F55000097F
:102B4800D8B4A9EF15F0ABEF15F0CDEF15F005509F
:102B58000610D8B4B2EF15F0B4EF15F0CDEF15F0BC
:102B6800610020F4D9F4610024F4DAF4DF50076E30
:102B7800610028F4F6F461002CF4F7F4F86A080010
:102B8800F5500718D8B4CBEF15F0CDEF15F085EF59
:102B980015F0610020F4D9F4610024F4DAF4DF5070
:102BA800076E610028F4F6F461002CF4F7F4F86A73
:102BB8000800F550075C016E026AD8A002061200F0
:102BC800000E0501FC25D96EDA6A060EDA22000E1F
:102BD800DF6E0201B2A7F3EF15F0F5EF15F00AEF7B
:102BE80016F0000E0501FC25D96EDA6A060EDA2207
:102BF8000601DF8202D80AEF16F00500FA6E965138
:102C0800FD6E9751FE6EFF6AFA5012000201B2A3E0
:102C180010EF16F012EF16F027EF16F0000E050170
:102C2800FC25D96EDA6A060EDA220601DF8402D89C
:102C380027EF16F00500FA6E9451FD6E9551FE6E61
:102C4800FF6AFA501200000E0501FC25D96EDA6AF7
:102C5800060EDA22DF50D8B434EF16F036EF16F04D
:102C680045EF16F002D843EF16F00500FA6E06019C
:102C78009251FD6E9351FE6EFF6AFA50120047EFB3
:102C880016F0F2EC1BF012000501F7A14EEF16F05A
:102C980050EF16F05AEF16F015C50CF516C50DF5E0
:102CA80013C50EF514C50FF52EEC1BF018BE5FEF1B
:102CB80016F061EF16F067EF16F017C51CF518C58A
:102CC8001DF56BEF16F0000E1D6E000E1C6E000E4B
:102CD8001B6E000E1A6E7DEF16F0000E046E200EAD
:102CE800036E13C505F514C506F559EC18F01A4A14
:102CF8001B2A1C501A5C1B50800A196E1D50800A32
:102D08001958D8A08AEF16F08CEF16F071EF16F06C
:102D18000501F7B192EF16F094EF16F09EEF16F05A
:102D280015C50CF516C50DF513C50EF514C50FF52B
:102D38002EEC1BF015C501F516C502F550EC1BF07D
:102D48001C500124136E1D500220146E1200000E38
:102D5800066E04BEB4EF16F0B2EF16F0BAEF16F036
:102D6800036C041ED8B0042A010E066E02BEC1EF21
:102D780016F0BFEF16F0C7EF16F0016C021ED8B0C0
:102D8800022A010E061A000E086E000E076E035086
:102D98000410D8B4D2EF16F0D4EF16F0FCEF16F00A
:102DA800010E056EDCEF16F0D89003360436052ABE
:102DB80004AEE1EF16F0E3EF16F0D8EF16F0D89076
:102DC800073608360350015C04500258D8A0EFEFCC
:102DD80016F0F1EF16F0F6EF16F00350015E04500E
:102DE800025A0780D89004320332052EE3EF16F01A
:102DF8000650D8B402EF17F004EF17F008EF17F0F9
:102E0800076C081ED8B0082A07C501F508C502F5E1
:102E18001200000E066E02BE16EF17F014EF17F040
:102E28001CEF17F0016C021ED8B0022A010E066EC4
:102E380004BE23EF17F021EF17F027EF17F0036C0C
:102E4800041ED8B0042A03500410D8B42EEF17F08B
:102E580030EF17F054EF17F0010E056E38EF17F04A
:102E6800D89003360436052A04AE3DEF17F03FEF3D
:102E780017F034EF17F00350015C04500258D8A043
:102E880048EF17F04AEF17F04EEF17F00350015EC6
:102E98000450025AD89004320332052E3FEF17F03F
:102EA8000650D8B45AEF17F05CEF17F060EF17F040
:102EB800016C021ED8B0022A01C501F502C502F54F
:102EC8001200000E0114096E000E02140A6E800E24
:102ED80003140B6E7F0E04140C6E09500A100B10AD
:102EE8000C10D8A47AEF17F07CEF17F084EF17F0E6
:102EF800000E016E000E026E000E036E000E046ED0
:102F0800000E0514096E000E06140A6E800E0714D2
:102F18000B6E7F0E08140C6E09500A100B100C1063
:102F2800D8A499EF17F09BEF17F0A3EF17F0000E56
:102F3800056E000E066E000E076E000E086E055038
:102F480001180FE1065002180CE10750031809E1B7
:102F580008500418D8B4B3EF17F0B5EF17F0B8EF6E
:102F680017F0D890B9EF17F0D8801200AC90C80EBF
:102F7800016E2B0E026EEBEC1CF0AC92CC0E016EC7
:102F8800350E026EE6EC1CF0000E0201A56F000E75
:102F9800A66F000EA76F000EA86F000EA96F000E97
:102FA800AA6FA00EAB6F800EAC6F000EAD6F190E3E
:102FB800AE6F000EAF6F000EB06F000EB16F000E57
:102FC800B26F000EB36F260E016E3A0E026EF5EC6C
:102FD8001CF0240E016E3A0E026EF0EC1CF01A0E74
:102FE800016E3A0E026EFAEC1CF0000E0501F96F44
:102FF800000EFE6F000EFD6F080E06019E6F000E9C
:103008000501FC6F000EFB6F000EFA6FAC8012001A
:10301800ACA211EF18F013EF18F029EF18F0B7A2CF
:1030280018EF18F01AEF18F029EF18F002D827EF68
:1030380018F00500FA6E06019851FD6E9951FE6E62
:10304800FF6AFA50120058EF18F0ACA02EEF18F0F3
:1030580030EF18F046EF18F0B7A035EF18F037EF5B
:1030680018F046EF18F002D844EF18F00500FA6E91
:1030780006019A51FD6E9B51FE6EFF6AFA501200CE
:1030880058EF18F0AAA04BEF18F04DEF18F058EFD2
:1030980018F0B5A052EF18F054EF18F058EF18F0E8
:1030A800DAEC1BF058EF18F0110005500610D8B4F0
:1030B80060EF18F062EF18F06BEF18F0055006108B
:1030C800D8A469EF18F06BEF18F070EF18F0035000
:1030D800E1EC1CF0A3EF18F020EE04F00550D9261F
:1030E8000650DA22DE50DE10D8B47DEF18F07FEFFC
:1030F80018F09AEF18F020EE04F00550D926065083
:10310800DA2210EE02F00550E1260650E222DE50E7
:10311800E65CE650800A0B6EDE50800A0B58D8B089
:1031280098EF18F09AEF18F0A3EF18F020EE02F0DD
:103138000550D9260650DA22DE2A000EDD221200BA
:10314800390E68EC1CF0600084FFEBF5600088FF26
:10315800ECF50501ED6BEE6B8D0E68EC1CF0600074
:1031680084FFEFF5600088FFF0F50501F16BF26B65
:10317800F251F1110BE1F00EEF5D0F0EF059D8A0EE
:10318800C8EF18F0CAEF18F0DEEF18F0FB0EF66E75
:10319800FE0EF76E000EF86E21EEB6F1340E090041
:1031A800F5C4DEF4E806FBE2B60EA86F050EA96FBB
:1031B80032EC1CF0EBC5AEF5ECC5AFF5EFC5B0F5DC
:1031C800F0C5B1F5EBEC18F000EC1AF01200BE8A6D
:1031D800B0C501F5B1C502F5036A046A000E0CEC2E
:1031E80013F001C50FF502C510F503C511F504C5A7
:1031F80012F5AEC501F5AFC502F5036A046A000E03
:103208000CEC13F001C513F502C514F503C515F54B
:1032180004C516F52BEC0FF00FC5B2F510C5B3F5C4
:1032280011C5B4F512C5B5F5BE9A400E0501A86FD3
:10323800FF0EA96FB2C5AAF5B3C5ABF5B4C5ACF519
:10324800B5C5ADF532EC1CF0120056C55AF557C598
:103258005BF5000E0601216F000E206F47EF19F095
:1032680054C548F555C549F55A0E4A6E050E4B6EBC
:1032780058C54CF559C54DF510EC06F048500601F7
:10328800202749502123610068F5F6F461006CF5A8
:10329800F7F4000EF86E140EF76403D00800F5502A
:1032A80005D0F6C4E9F4F7C4EAF4EF500009D8A44D
:1032B80060EF19F062EF19F034EF19F020C654F5F9
:1032C80021C655F51200000E0301D96F000EDA6F02
:1032D800000EDB6F000EDC6F000EDF6F000EE06F7C
:1032E800000EE56F200EE76F000EEC6F2D0EEE6FEF
:1032F800000EEF6F000EF06F000EF16F000EF26F10
:10330800000EF46F530EF56F070EF66F000EF76F91
:10331800000EF86F000EF96F000EFA6F940EF36F3F
:10332800B590AA80280E016E3A0E026EFFEC1CF0D2
:10333800120003C507F504C508F501C509F502C55E
:103348000AF50750056E0850066E074A082A6100FC
:1033580014F4F6F4610018F4F7F4000EF86E610046
:1033680024F4D9F4610028F4DAF4094A0A2A140E7C
:10337800F76403D00800F55005D0F6C4E9F4F7C4A3
:10338800EAF4EF50DF6EDF50D8A4CDEF19F0CFEF9D
:1033980019F0A5EF19F01200B00EF66E380EF76EA0
:1033A800000EF86E01EE72F210EE20F00900F5C47E
:1033B800EEF4E550E150FAE12A0EF66E3A0EF76E99
:1033C800000EF86E09006100D4F3FFF501EE00F27B
:1033D800720EEE6AE806FDE101EEF3F10C0EEE6AFC
:1033E800E806FDE10401080E5D6F000E5E6F000E39
:1033F8005F6F0001C1EF1BF0080E0501FF19D8A48B
:1034080008EF1AF00AEF1AF00FEF1AF0010EBDECF0
:103418001CF00001A3970501FF2B080EFF19D8A483
:1034280018EF1AF01AEF1AF021EF1AF0000EBDEC9F
:103438001CF004EC1DF02FEF1AF0090EFF19D8A4A8
:1034480028EF1AF02AEF1AF02CEF1AF0000EFF6F8F
:10345800FF51B1EC1CF01200BF0E096EFF0E0A6E90
:1034680007C50BF508C50CF509500B260A500C22A8
:103478000C500AE11A0E0B5CD8A045EF1AF048EF81
:103488001AF0010E49EF1AF0000E0D6E0E6A0D507B
:103498000E10D8B452EF1AF054EF1AF05BEF1AF08E
:1034A800200E0710076E0850086E5FEF1AF007C568
:1034B80007F508C508F51200016E06019E51D8B43B
:1034C80068EF1AF06AEF1AF061EF1AF0ACB26FEF1A
:1034D8001AF071EF1AF076EF1AF0610004F4A3F213
:1034E8008EEF1AF0AC92100E0501FE25D96EDA6A3D
:1034F800060EDA22610004F4DFF4FE2B070EFE65E7
:1035080088EF1AF08AEF1AF08CEF1AF0000EFE6FAF
:1035180006019E07AC821200000EBE6E000EBF6E42
:10352800000EC06E1B0EC66E700EC76EC868040112
:103538001069F00E086F030E006F000E096F000E81
:10354800016F000E116F000E026F000E0A6F000E61
:10355800126F370E036FF00E0B6F13693F0E046F77
:10356800F00E0C6F1469100E0201106F040E726FCA
:103578001200010E076E200E01180210D8B4C7EF12
:103588001AF0C9EF1AF0E2EF1AF0F70E036EFF0E09
:10359800046E01C505F502C506F50350052604505D
:1035A8000622065009E1050E055CD8A0DEEF1AF0E8
:1035B800E0EF1AF0E2EF1AF0000E076E07C501F50A
:1035C800026A1200080E06019E61EDEF1AF0EFEF95
:1035D8001AF009EF1BF0100E0501FD25D96EDA6A05
:1035E800060EDA22DF500201A36F0501FD2B070E3C
:1035F800FD6501EF1BF003EF1BF005EF1BF0000E5C
:10360800FD6F06019E2B0AEF1BF0AC921200000E14
:103618001E1A000E1F1A000E201A800E211A1AC533
:1036280001F51BC502F51CC503F51DC504F51EC52E
:1036380005F51FC506F520C507F521C508F5A4EC55
:103648000AF001C51AF502C51BF503C51CF504C52A
:103658001DF51200000E126E000E116E3FEF1BF0EA
:1036680010C503F5046A0EC505F50FC506F559EC36
:1036780018F0114A122A11500C24D96E12500D203C
:10368800DA6EDF50106E1050D8A44DEF1BF04FEFDC
:103698001BF034EF1BF0120001C503F502C504F559
:1036A80058EF1BF0014A022A610004F4D9F46100C2
:1036B80008F4DAF4DF50D8A464EF1BF066EF1BF0CF
:1036C80056EF1BF00350015C016E04500258026E65
:1036D8001200BF0E036EFF0E046E01C505F502C58C
:1036E80006F5035005260450062206500AE11A0E74
:1036F800055CD8A082EF1BF085EF1BF0010E86EF6A
:103708001BF0000E016E026A120001500210031035
:103718000410D8B492EF1BF094EF1BF09CEF1BF051
:10372800000E011A000E021A000E031A800E041A67
:1037380001C501F502C502F503C503F504C504F585
:103748001200D00E036EFF0E046E01C505F502C50A
:1037580006F5035005260450062206500AE10A0E13
:10376800055CD8A0BAEF1BF0BDEF1BF0010EBEEF51
:103778001BF0000E016E026A120045EC1CF0D68E9A
:103788001DEC1CF00009D8B4CCEF1BF0CEEF1BF0F9
:10379800C4EF1BF0BE8407EC1DF0A4EC18F0BE9437
:1037A8000AEC1DF0C4EF1BF00DEF00F0B590060118
:1037B8009C519D11D8B4E3EF1BF0E5EF1BF0F1EF3E
:1037C8001BF002D8F1EF1BF00500FA6E9C51FD6E5C
:1037D8009D51FE6EFF6AFA5012001200080E050194
:1037E800FC25D96EDA6A060EDA22A1C2DFF4FC2BB8
:1037F800070EFC6502EF1CF004EF1CF006EF1CF04E
:10380800000EFC6FFA2B1200015003026100CCF38A
:1038180005F56100D0F306F501500402F3500626C1
:1038280002500302F350062605C501F506C502F548
:103838001200B6B622EF1CF025EF1CF0010E26EFA1
:103848001CF0000E016E0150D8B42DEF1CF02FEFC4
:103858001CF030EF1CF0B69601501200AA0E5E6EF6
:10386800050E5F6E000E546E000E556EA8C556F517
:10387800A9C557F55E0E586E050E596E29EC19F05C
:10388800120010EC1DF087EC1CF090EC1AF095EC8F
:103898001CF0DBEC1CF067EC19F078EC1CF0BAECCF
:1038A80017F0A3EC1CF01200F8FF94FFC5FFB9FF56
:1038B800E9FF9BFFCAFFADFFFBFFA7FFCFFFBFFFDD
:1038C800EDFFA1FFD4FFB3FF026EC8EC1CF00009A6
:1038D800D8B471EF1CF073EF1CF069EF1CF00250C4
:1038E800D3EC1CF003001200040E0301206F000E3D
:1038F8001F6F000E216FF10E1D6F000E1C6FB69624
:10390800F90E1E6F1200000E0001636F000E646F47
:10391800000E656F000E666F000E676F000E686F11
:103928001200620E0001AD6F000EAF6F000EB36F94
:10393800020EB16F000EB06F000EAC6F12000F0ECA
:103948000001A46F050EA56F800EA66F000EA76F6D
:10395800000EA96F880EA36F1200026E0001A487E3
:1039680002C501F5013AA45101188F0B0118A46F83
:103978001200026E02C501F5013A0001A5510118B5
:103988008F0B0118A56F12000201B2BFCEEF1CF019
:10399800D1EF1CF0010ED2EF1CF0000E1200016EE8
:1039A800610004F4ECF30301F38FF3811200800E3D
:1039B8000001A26F0A0EA06F1200026E025060ECA6
:1039C8001AF0120001C598F602C599F6120001C551
:1039D8009AF602C59BF6120001C594F602C595F643
:1039E800120001C596F602C597F6120001C592F6B7
:1039F80002C593F6120001C59CF602C59DF6120099
:103A08000001A387120003011E9F120003011E8FED
:103A18001200F2EC1BF01200D69A120012001200EB
:033A280012000881
:10FEFA00005B5741524E494E475D205369676E6118
:10FF0A006C206973206E656172206F7220617420A3
:10FF1A006D6561737572656D656E74206C696D6966
:10FF2A0074732E0A0D00303132333435363738398E
:10FF3A0041424344454643616C63756C6174656430
:10FF4A00206761696E3A2025332E34660A0D005304
:10FF5A0069676E616C204F75742056616C75653ADD
:10FF6A00203078005369676E616C20496E205661B3
:10FF7A006C75653A2030780043616C63756C617406
:10FF8A006564206761696E3A20002E303631323559
:10FF9A00002E33313235002E38313235002E3536C7
:10FFAA003235002E34333735002E39333735002EAB
:10FFBA0031383735002E36383735002E3132350094
:10FFCA002E333735002E363735002E38373500496F
:10FFDA004E46004E414E00696E66006E616E002EFE
:10FFEA003235002E3735004E614E006C66002E30D9
:05FFFA00002E3500009F
:020000040020DA
:10000000FF0FFF0FFF0FFF0FFF0FFF0FFF0FFF0F80
:10001000FF0FFF0FFF0FFF0FFF0FFF0FFF0FFF0F70
:020000040030CA
:0A000000ECFFF7FF9FFFFFFFFFFF7B
:00000001FF
