:020000040000FA
:040000000DEF00F010
:04000800B4EF0EF053
:10001800FF001EEF0FF07A6B7B6B3EC58CF53FC57A
:100028008DF540C58EF541C58FF58FAF15D07B6B2B
:10003800010E7A6F8CC501F58DC502F58EC503F5E5
:100048008FC504F54EEC10F001C58CF502C58DF591
:1000580003C58EF504C58FF5926B936BF3C57FF5D9
:10006800F4C580F57A517B1102E1F7A510D07A51D9
:100078007B1103E1656B2B0E02D0656B2D0E646F4F
:1000880064C522F6924B932B7F07D8A0800711DB1B
:10009800DEEC0AF00104021022E1A6DA05E11A0EEC
:1000A800455C02E2010E01D0000E0501666F676B28
:1000B8006651671108E0B1DAD90E036EFF0E046EBF
:1000C80042EC0EF007D0A9DAE10E036EFF0E046EC3
:1000D80042EC0EF095DA7BDACAEC0BF017D3E9DACA
:1000E800DEEC0AF00150021022E17EDA05E11A0E78
:1000F800455C02E2010E01D0000E0501686F696BD4
:100108006851691108E089DADD0E036EFF0E046E8E
:1001180042EC0EF007D081DAE50E036EFF0E046E96
:1001280042EC0EF06DDA53DACAEC0BF0EFD20501AF
:10013800E4DA8CC501F58DC502F58EC503F58FC5CA
:1001480004F5FADA14EC0EF010E333D099DAE3DAB6
:1001580006EC07F001C594F502C595F503C596F5BB
:1001680004C597F50501904B912BACDAD4DA88DAFF
:1001780006EC07F001C51EF502C51FF503C520F5FD
:1001880004C521F584EC0BF008E3E0D7EFD91CECAB
:1001980008F06CDA9007D8A0910794DA94C51EF598
:1001A80095C51FF596C520F597C521F584EC0BF08C
:1001B800EDE342C507F5086AFBEC0EF007500501B0
:1001C800816F81C57EF5670E811916E1F551F6112B
:1001D80004E1000EF66F010EF56FF6BF04D0F6517C
:1001E80006E1F50504E27D6B060E7C6F08D0F5C5C7
:1001F8007CF5F6C57DF503D0F6BFF5D7F8D7670EC1
:1002080081191EE191AF05D0FC0E905DFF0E91594A
:1002180015E3436844687CC545F57DC546F54350FC
:100228004526445046229051455C4650800A476E08
:100238009151800A475802E3660E01D0650E7E6F21
:100248007CC574F57DC575F5670E811905E1660EE7
:100258007E1904E191AF02D0744B752B660E7E199E
:1002680009E191BF4ADA670E811904E090517427B9
:10027800915175238A6B8B6B8CC582F58DC583F57F
:100288008EC584F58FC585F594C560F595C561F56E
:1002980096C562F597C563F517D0C6D91CEC08F06A
:1002A8001ADAFEEC08F0D1D936EC0BF040DA6DD949
:1002B80006EC07F0F5D93EEC0FF080D957D91CECC5
:1002C80008F0D4D98A4B8B2B0FDAE7E3D9D9056A22
:1002D800066AA00E076E400E086E06EC07F001C510
:1002E80086F502C587F503C588F504C589F582C575
:1002F8001AF583C51BF584C51CF585C51DF586C58E
:100308001EF587C51FF588C520F589C521F584EC3C
:100318000BF002E2050116D082C501F583C502F58E
:1003280084C503F585C504F586C505F587C506F5B5
:1003380088C507F589C508F514EC0EF007E3050133
:1003480078B104D0866B876B886B896B8CC501F597
:100358008DC502F58EC503F58FC504F586C505F56F
:1003680087C506F588C507F589C508F5D9EC05F0F0
:1003780001C582F502C583F503C584F504C585F575
:1003880060C594F561C595F562C596F563C597F5A1
:10039800650E05017E1905E090C576F591C577F5DE
:1003A80002D0766B776B726B736B706B716B8A6B49
:1003B8008B6B47D039D91CEC08F08DD9FEEC08F0CE
:1003C80044D936EC0BF0B3D90501F7B90BD0785105
:1003D800791108E1670E811905E177AF03D0704BF9
:1003E800712B1FD07251731113E177AF11D00ED951
:1003F8002E0E98D9D8A08007736B010E726F08D0A3
:1004080005D9300E8FD9D8A080077007D8A07107FA
:1004180070517111F5E1FAD87851300F83D9D8A00D
:100428008007B3D806EC07F03BD93EEC0FF0C6D8EE
:100438009DD81CEC08F01AD97607D8A077078A4B04
:100448008B2B52D907E293BFB5D7935103E14B0EDB
:10045800925DB0E37251731107E1F7A905D0D6D8C0
:100468002E0EDF6E924B932BD1D8DF6A650E7E1964
:1004780079E18B6B4F0E8A6F0CD9DF6A7A6B7B6BD5
:1004880091AF07D07B6B010E7A6F906D911FD8B03A
:10049800912B7D6B020E7C6F23D08A07D8A08B0727
:1004A800F8D890C501F591C502F5046A0A0E036EE5
:1004B8007FEC0DF00150300FDF6E90C501F591C54E
:1004C80002F5046A0A0E036E08EC0DF001C590F5FA
:1004D80002C591F57C07D8A07D077F07D8A08007C3
:1004E80090519111DAE17DBF04D07D51D6E17C05B0
:1004F800D4E28A07D8A08B077A517B1103E16B6B92
:100508002B0E02D06B6B2D0E6A6FC3D86100A8F555
:10051800DFF47F07D8A080078A07D8A08B0764D8A4
:1005280005E11A0E455C02E2010E01D0000E6E6F65
:100538006F6B6E516F1103E16D6B650E02D06D6BC1
:10054800450E6C6FA6D86100B0F5DFF47F07D8A020
:10055800800763D8220E8A25036E060E8B21046E4F
:1005680042EC0EF034D8CAEC0BF0D0D094C50FF59D
:1005780095C510F596C511F597C512F5136A146A55
:10058800200E156E410E166E410C82C51AF583C5F4
:100598001BF584C51CF585C51DF594C505F595C5E0
:1005A80006F596C507F597C508F586C501F587C50B
:1005B80002F588C503F589C504F512001AC582F548
:1005C8001BC583F51CC584F51DC585F512003CC502
:1005D80013F53DC514F5220E156E060E166E7FC571
:1005E80017F580C518F51200BF0E436E44684250D7
:1005F800456E466A435045264450462246501200EE
:100608000501FD0E7F27FF0E8023FF0C220E922589
:10061800D96E060E9321DA6E1200220E9225016E13
:10062800060E9321026E120082C50FF583C510F5E0
:1006380084C511F585C512F594C513F595C514F54E
:1006480096C515F597C516F5120028C586F529C56E
:1006580087F52AC588F52BC589F586C501F587C5AF
:1006680002F588C503F589C504F512000FC594F590
:1006780010C595F511C596F512C597F50501120037
:1006880094C501F595C502F596C503F597C504F51A
:100698001200220E8A25D96E060E8B21DA6E120000
:1006A80001C51EF502C51FF503C520F504C521F5D2
:1006B80012008CC501F58DC502F58EC503F58FC5F1
:1006C80004F512008CC51AF58DC51BF58EC51CF5F1
:1006D8008FC51DF512000FC528F510C529F511C5E0
:1006E8002AF512C52BF5120074518A5D8B51800AC8
:1006F800436E7551800A43581200946B956B800EB7
:10070800966F3F0E976F906B916B120013C53CF577
:1007180014C53DF51200056A066A200E076E410EE3
:10072800086E410CDF6E924B932B7F07120001C5B8
:1007380078F502C579F51200056A066A076A086A3B
:100748001200610028F5D9F47ED9F76403D00800B7
:10075800F55001D0A3D9250A01E063D18ED9DE2A4C
:10076800000EDD220501F36BF46BF76BF86BF5698E
:10077800F669610028F5D9F466D9F76403D0080052
:10078800F55001D08BD92A0A11E177D98DD96100AA
:1007980078F3F3F5610074F3F4F50501F4AF28D0AC
:1007A800F781F36DF41FD8B0F42B22D066D9E8D9BD
:1007B800BBEC09F008C5F3F509C5F4F502D05DD91D
:1007C800F0D9BFD95AD9ADD9F76403D00800F5508C
:1007D80001D064D9CDD905E10A0E525C02E2010EBE
:1007E80001D0000E05019A6F9B6B9A519B11E7E1AE
:1007F800610028F5D9F427D9F76403D00800F5502B
:1008080001D04CD92E0A3EE10501F56BF66B35D9BE
:10081800DE2A000EDD22610028F5D9F414D9F76428
:1008280003D00800F55001D039D92A0A09E125D9A1
:100838003BD9610078F3F5F5610074F3F6F522D041
:100848001CD99ED9BBEC09F008C5F5F509C5F6F524
:1008580002D013D9A6D975D910D963D9F76403D0B2
:100868000800F55001D01AD983D905E10A0E525C67
:1008780002E2010E01D0000E05019C6F9D6B9C5198
:100888009D11E7E1610028F5D9F4DDD8F76403D0BC
:100898000800F55001D002D9076E086AFBEC0EF08B
:1008A80007500501A46FA45127E0E7D8DFD85CD929
:1008B800EBD8F76403D00800F55001D0EFD8076EE5
:1008C800086AFBEC0EF007500501A56FA55114E06E
:1008D800D4D8CCD8020E4E26000E4F22D5D8F764B5
:1008E80003D00800F55001D0D9D8076E086AFBEC90
:1008F8000EF007500501A66F660EA41915E16100F8
:1009080028F5D9F4A0D8F76403D00800F55001D031
:10091800C5D80501A76FB1D8DE2A000EDD22DED8C2
:1009280014D90FEC00F033D1A40E016E050E026E3F
:10093800F50E036EFF0E046E066A020E056E4CEC91
:100948000CF0015002102DE198D890D80DD99CD800
:10095800F76403D00800F55001D0A0D80501A76FAF
:10096800BF0E4E6E4F6889D8DCD8F76403D00800F4
:10097800F55001D093D8FCD805E11A0E525C02E27A
:10098800010E01D0000E05019E6F9F6B9E51A6D8E7
:10099800020E73D8DE26000EDD22D7D80FEC00F049
:1009A800F6D0610028F5D9F44ED8F76403D00800D2
:1009B800F55001D073D86E0A17E15FD875D8610079
:1009C80078F398F5610074F399F5610060F6D9F44D
:1009D800610064F6DAF4610080F8DEF4610084F8FE
:1009E800DDF4486A496A1200610028F5D9F42BD869
:1009F800F76403D00800F55001D050D8250A0EE15D
:100A08003CD8DE2A000EDD22046A250E036EC4D807
:100A1800E5EC0DF0496A010E486E010C2ED8C1D8DC
:100A2800E0D7610028F5D9F40ED8F76403D00800A0
:100A3800F55001D033D8036E046AAED8E5EC0DF05A
:100A48001CD8AFD8E7D761002CF5DAF4610078F349
:100A58004EF5610074F34FF5610038F5F6F4610066
:100A68003CF5F7F4000EF86E140E1200610078F3EE
:100A78004EF5610074F34FF51200610028F5D9F4C2
:100A880061002CF5DAF41200610038F5F6F4610023
:100A98003CF5F7F4000EF86E140E1200F6C4E1F4FB
:100AA800F7C4E2F4E7501200DE2A000EDD226100EE
:100AB80030F5D9F4610034F5DAF461007CF34EF5D1
:100AC800020EDE2661007CF34FF5000EDD22610088
:100AD80038F5D9F461003CF5DAF4000C610030F522
:100AE800D9F4610034F5DAF461007CF34EF5040EB4
:100AF800DE2661007CF34FF5000EDD22610038F53B
:100B0800D9F461003CF5DAF4610078F3A0F56100EE
:100B180078F3A1F5610078F3A2F5610078F3A3F505
:100B2800000C610078F350F5610074F351F5610031
:100B380040F5F6F4610044F5F7F4000EF86E140E73
:100B48001200D00E4E6E4F68D00C48C53CF549C512
:100B58003DF5A0C53EF5A1C53FF5A2C540F5A3C525
:100B680041F5A7C542F512004E2A000E4F22000C8F
:100B7800526E536A4E5052264F5053225350120011
:100B8800610078F308F5610074F309F512003CC5BB
:100B980048F53DC549F5120048C505F549C506F5AE
:100BA8001200DE2A000EDD22000C0450800B0D6EB0
:100BB800045004240F6E03BE0F800F5005E00F2869
:100BC80001E106D9038E03D0016A026A036A046A46
:100BD8000850800B0E6E0D1801E00D8C085008248B
:100BE8000E6E07BE0E800E5008E00E2804E1056A5E
:100BF800066A076A086A078E03D0056A066A076AE2
:100C0800086A0F500E5C22E20DAC02D0800E0D1A5D
:100C18000FC510F50EC50FF510C50EF501C510F579
:100C280005C501F510C505F502C510F506C502F59F
:100C380010C506F503C510F507C503F510C507F57A
:100C480004C510F508C504F510C508F5106A0F505D
:100C58000EC509F50A6A095E000E0A5A0ABE15D0C1
:100C68000A5003E11A0E095C10E3C2D8010ED8B489
:100C7800000E106EADD80EC50FF50AD010A002D028
:100C8800BCD802D0D89010329AD80E500F5CF6E338
:100C98000DBC15D00F5001E1A6D005500126065015
:100CA8000222075003220850042204A053D010A0A7
:100CB80002D0A3D802D0D890103281D84BD005509A
:100CC800015C06500258075003580450800A096E08
:100CD8000850800A09581FE20150055C096E02504D
:100CE80006580A6E035007580B6E045008580C6ECD
:100CF800FF0E0924016EFF0E0A20026EFF0E0B2064
:100D0800036EFF0E0C20046E800E0D1A106C10502E
:100D18000AE163D808D00550015E0650025A075010
:100D2800035A0850045A64D813E1105011E15BD0FB
:100D3800D890013602360336043610BE018010A062
:100D480002D0D88001D0D89010360F5001E00F069D
:100D580003AEEED70E6A10AE0AD010C509F57F0EA5
:100D6800091603E0010E0E6E02D001B0FBD70E503B
:100D78000BE033D804A008D0043404320332023222
:100D880001320F2801E00F2A0F2802E00F5004E17A
:100D98001FD80F5001E10D6A0FA002D0038E01D0B9
:100DA800039ED8900F30046E0DBE048E01C501F568
:100DB80002C502F503C503F504C504F5120001B028
:100DC800108E043404320332023201320F2A120028
:100DD800016A026A036A046A1200012A000E0222EA
:100DE80003220422000C016A026A036A046A1200E0
:100DF80001500210031004101200D890103001099D
:100E0800106E12000450800B0D6E04500424136EF3
:100E180003BE1380135005E0132801E104D9038EA3
:100E280001D001D90850800B0D1A085008240E6E05
:100E380007BE0E800E5005E00E2801E1EFD8078EA0
:100E480001D0ECD80E5002E0135005E1016A026AA5
:100E5800036A046A120007500102B1D80F6E106AC3
:100E6800116A126A1950146E156A166A176A0650C2
:100E78000202A5D8B4D805500302A1D8B0D8A7D883
:100E8800055002029CD8B7D80650010298D8B3D8AA
:100E98009ED80550010293D8AED8075002028FD8C9
:100EA800B6D8065003028BD8B2D80750030287D8A9
:100EB800096E19500A6E0B6A0C6A0BC50CF50AC547
:100EC8000BF509C50AF5096A095014260A501522B6
:100ED8000B5016220C5017221250142693D877D88C
:100EE8000E5013C509F50A6A0926000E0A22820E59
:100EF8000924186EFF0E0A20196E0FD0D8901436E8
:100F080015361636173612BE1480D8900F3610369E
:100F1800113612361806D8A0190616AEEFD70E6A83
:100F280012AE13D00F50096E10500A6E11500B6E8E
:100F38007F0E12140C6E09500A100B100C1003E0EF
:100F4800010E0E6E02D014B0FBD70E500BE0142A1F
:100F580059D817A007D01734173216321532143261
:100F6800184A192A19BE0AD0195002E1182806E3AE
:100F7800146A156A800E166E7F0E15D019BE04D03D
:100F8800195008E1180406E2146A156A166A176A05
:100F98000D6A0AD018C513F57F0E1616176A13B016
:100FA800168ED8901330176E0D50171214C501F510
:100FB80015C502F516C503F517C504F5120061003D
:100FC800CCF318F56100D0F319F51850120011C5CB
:100FD80012F510C511F50FC510F50F6A12000F268E
:100FE800000E10221122122219501426000E15226A
:100FF80016221722000C0F2619501022000E11225B
:101008001222000C000E152216221722000C14269C
:1010180019501522000E16221722000C056A066ABE
:10102800076A086A1200016A026A036A046A1200FF
:101038001250800B1F6E12501224266E11BE26808D
:10104800265005E0262801E1D0D8118E03D00F6A7A
:10105800106A116A126A1650800B1F1A165016244D
:10106800276E15BE2780275008E0272804E1136A59
:10107800146A156A166A158E03D0136A146A156AFB
:10108800166A135014101510161010E1AED8800E01
:1010980011127F0E12121F5012120FC50FF510C534
:1010A80010F511C511F512C512F51200265005E10B
:1010B8000F6A106A116A126A1200275026C517F5BE
:1010C800186A175E000E185A7F0E1724206E000E3D
:1010D8001820216E0FC51BF510C51CF511C51DF58F
:1010E80012C51EF582D8226A236A246A256A276AED
:1010F8001BD0275006E0D8901B361C361D361E36EE
:1011080067D813501B5C14501C5815501D581650A6
:101118001E5809E3258C13501B5E14501C5A155099
:101128001D5A16501E5A272A190E2764E2D71B503B
:101138001C101D101E1006E0228004D049D820067D
:10114800D8A0210611AEFAD7276A25AE13D02250AF
:10115800176E2350186E2450196E7F0E25141A6EC0
:101168001750181019101A1003E0010E276E02D03C
:101178000FB0FBD727500EE00F2A000E10221122C5
:10118800122212A007D012341232113210320F324A
:10119800204A212A21BE07D0215002E1202803E35A
:1011A800216A206822D821BE04D0215006E12004FB
:1011B80004E2206A216A19D81F6A20C526F526A0EC
:1011C80002D0118E01D0119ED8902630126E63D7AE
:1011D800D8900F3610361136123625BE0F80D890AB
:1011E800223623362436253612000F6A106A116A11
:1011F800126A120018C638F519C639F51AC63AF532
:101208001BC63BF528C538F529C539F52AC53AF571
:101218002BC53BF5810E2C6E2D6838C52EF539C5CA
:101228002FF53AC530F53BC531F5180E05D0D890E5
:10123800313230322F322E32E82EF9D72E502C246C
:10124800366E000E2D20376E37BE0ED0375003E1B4
:10125800170E365C09E328C528F529C529F52AC5DE
:101268002AF52BC52BF5120037BE47D036C52CF50D
:101278002D682E687F0E2F6E000E306E2C6601D002
:1012880007D0303430322F322E322D322C2EF6D772
:101298002DC532F52EC533F52FC534F530C535F5D6
:1012A800325038142C6E335039142D6E34503A1491
:1012B8002E6E35503B144FD8CEE044D801D051D8CB
:1012C800E82EFDD72C5008E032503826335039220A
:1012D80034503A2235503B22321C2C6E331C2D6E72
:1012E800341C2E6E351C2F6E2C5038162D50391686
:1012F8002E503A162F503B161CD024D801D031D886
:10130800E82EFDD72C6605D0386A396A3A6A3B6AF6
:1013180010D0D89038342C6E39342D6E3A342E6E65
:101328003B3419D806E0386A396A800E3A6EBF0E27
:101338003B6E38C528F539C529F53AC52AF53BC5A8
:101348002BF5120038C52CF539C52DF53AC52EF503
:101358003BC52FF5200C2F6E2C502D102E102F1062
:101368001200D8902F322E322D322C321200156AEC
:10137800166A0E6A0F6A02D0084A092A010E146E0C
:1013880081D8F76403D00800F55002D052EC05F07C
:10139800200A11E0F70E0A6E0B6874D8F76403D0C0
:1013A8000800F55002D052EC05F076D803E1050E9E
:1013B8000C5C01E3146A14C510F5116A1050111081
:1013C80007E0DAD70F6A010E0E6E084A092A2DD0F7
:1013D80059D8F76403D00800F55002D052EC05F054
:1013E8000A6E0B6A0B5021E10A502B0AEEE0060A3E
:1013F800E9E01BD015C501F516C502F5046A0A0E09
:10140800036E07EC10F03ED8F76403D00800F550DF
:1014180002D052EC05F0015E000E025A300E012493
:10142800156E000E0220166ED0D7D00E0A6E0B680D
:1014380029D8F76403D00800F55002D052EC05F023
:101448002BD805E10A0E0C5C02E2010E01D0000E59
:10145800126E136A12501310CDE10E500F100DE1E9
:1014680015C50AF516C50BF50A1E0B1E0A4A0B2AE6
:101478000AC508F50BC509F5120015C508F516C506
:1014880009F51200610020F4F6F4610024F4F7F481
:10149800000EF86E140E12000C6E0D6A0A500C261F
:1014A8000B500D220D501200096E09501CE004AEBD
:1014B8001AD001C505F502C506F503C507F504C52B
:1014C80008F5051E061E071E081E052A000E062220
:1014D8000722082205C50BF506C50CF507C50DF54D
:1014E80008C50EF508D001C50BF502C50CF503C5F6
:1014F8000DF504C50EF5015002100310041005E1A6
:10150800016A026A036A046A1200960E0A6E02D021
:101518000A2A4AD8056A066A076AFE0E0E143ED8D9
:1015280008E0F6D70A2A0B2A000E0C220D220E22FA
:101538003BD8056A066A076A0E5030D807E0F2D72A
:101548000A06D8900B360C360D360E360DBE03D073
:10155800020E0A60F5D70AA00D9ED8900A320AC575
:1015680005F5066A076A086A05C508F5076A066A7E
:10157800056A05500B1206500C1207500D12085040
:101588000E12095002E004BE0E8E0BC501F50CC503
:1015980002F50DC503F50EC504F51200086E0550D9
:1015A8000610071008101200D8900E320D320C32B7
:1015B8000B3212001CC60BF51DC60CF51EC60DF528
:1015C8001FC60EF501C50BF502C50CF503C50DF5D3
:1015D80004C50EF539D8180E05D0D8900832073250
:1015E80006320532E82EF9D70550096E0A6A095005
:1015F8000A1013E1D8900B34056E0C34066E0D34C6
:10160800076E0E34086E29D804E1026A020E016ED4
:10161800020C026A030E016E030C09280A1010E17D
:1016280013D8090ED8900536063607360836E82E40
:10163800F9D713D8010ED8A4000E016E026A120061
:10164800026A040E016E040C0BC505F50CC506F5FF
:101658000DC507F50EC508F5120005500610071050
:1016680008101200033404340A6E0A5005E1016AB6
:10167800026A036A046A120001C505F502C506F587
:1016880003C507F504C508F5200E05D0D890083223
:10169800073206320532E82EF9D70550096E038E57
:1016A800046A960E0A5E0AAE0CD00A50800A970F9A
:1016B800DEE3D89004320332023201320A3EF9D70F
:1016C8000CD01F0E0A6407D0D2D7D8900136023644
:1016D800033604360A060A50F8E1095008E0041EE9
:1016E800031E021E016C000E02220322042201C501
:1016F80001F502C502F503C503F504C504F512009A
:10170800226A236A800E1C14246E7F0E1D1438D89A
:1017180004E11A6A1B6A1C6A1D6A226A236A800E1F
:101728002014246E7F0E21142BD804E11E6A1F6A30
:10173800206A216A1DAE09D01A6C1B1ED8B01B2A5C
:101748001C1ED8B01C2A800E1D5621AE09D01E6C56
:101758001F1ED8B01F2A201ED8B0202A800E21565E
:10176800800E1D1A211A1E501A5C1F501B5820503B
:101778001C5821501D5802E2D8901200D88012003F
:10178800256E225023102410251012000501F7A100
:1017980003D035D8ACEC0FF018BE05D017C51CF532
:1017A80018C51DF502D01C6A1D6A1A6A1B6A0BD07F
:1017B800046A200E036E13C505F514C506F5E5EC9D
:1017C8000DF01A4A1B2A1C501A5C1B50800A196E0D
:1017D8001D50800A1958ECE30501F7B103D00FD862
:1017E800ACEC0FF015C501F516C502F5DBEC0FF0F2
:1017F8001C500124136E1D500220146E120015C5D2
:101808000CF516C50DF513C50EF514C50FF5120028
:10181800390EA0EC10F0600084FFEBF5600088FF43
:10182800ECF50501ED6BEE6B8D0EA0EC10F0600091
:1018380084FFEFF5600088FFF0F50501F16BF26BAE
:10184800F251F11105E1F00EEF5D0F0EF05914E3BE
:101858000B0EF66EFF0EF76E000EF86E21EEB6F167
:10186800340E0900F5C4DEF4E806FBE2B60EA86FF4
:10187800050EA96F3EEC10F0EBC5AEF5ECC5AFF563
:10188800EFC5B0F5F0C5B1F5CCEC0CF0D8EF0EF023
:1018980001C508F502C509F503C50AF504C50BF528
:1018A8000506D8A0060605280CE106280AE1016A03
:1018B800026A1200084A092A0A4A0B2A0506D8A011
:1018C80006061ED80AE012D808E00550061005E002
:1018D80017D8076E0BD80718EDE012D8076E06D890
:1018E800075C016E026AD8A002061200610028F4A3
:1018F800F6F461002CF4F7F4F86A0800F5501200C9
:10190800610020F4D9F4610024F4DAF4DF50120005
:10191800AC90880E016E1A0E026ED2EC10F0AC92EA
:10192800240E016E1F0E026ECDEC10F00201A56BA5
:10193800A66BA76BA86BA96BAA6BA00EAB6F800EEA
:10194800AC6FAD6B190EAE6FAF6BB06BB16BB26BAA
:10195800B36B060E016E220E026EDCEC10F0040E64
:10196800016E220E026ED7EC10F0000E016E220EF0
:10197800026EE1EC10F00501F96BFE6BFD6B080ED1
:1019880006017E6F0501FC6BFB6BFA6BAC801200E5
:10199800BE8AB0C501F5B1C502F533D858EC0AF0D6
:1019A80001C50FF502C510F503C511F504C512F5FB
:1019B800AEC501F5AFC502F524D858EC0AF001C54B
:1019C80013F502C514F503C515F504C516F51CEC89
:1019D80008F00FC5B2F510C5B3F511C5B4F512C5B9
:1019E800B5F5BE9A400E0501A86FFF0EA96FB2C5E6
:1019F800AAF5B3C5ABF5B4C5ACF5B5C5ADF53EEFC5
:101A080010F0036A046A000C066A04AE06D0036C80
:101A1800041ED8B0042A010E066E02AE06D0016C70
:101A2800021ED8B0022A010E061A076A086A035075
:101A380004101BE0010E056E04D0D890033604365E
:101A4800052A04AEFAD7D890073608360350015C49
:101A58000450025805E30350015E0450025A0780FF
:101A6800D89004320332052EEED7065004E0076CF6
:101A7800081ED8B0082A07C501F508C502F51200E6
:101A880032D8DF6A0201B2A70ED02DD80601DF8254
:101A980001D809D00500FA6E7651FD6E7751FE6EB9
:101AA800FF6AFA5012000201B2A30ED01CD8060138
:101AB800DF8401D809D00500FA6E7451FD6E7551A6
:101AC800FE6EFF6AFA5012000ED8DF5002E15EEF98
:101AD80010F00500FA6E06017251FD6E7351FE6E2C
:101AE800FF6AFA501200000E0501FC25D96EDA6A69
:101AF800060EDA221200066A02AE06D0016C021E39
:101B0800D8B0022A010E066E04AE04D0036C041E7F
:101B1800D8B0042A0350041017E0010E056E04D053
:101B2800D89003360436052A04AEFAD70350015C70
:101B38000450025804E30350015E0450025AD8903E
:101B480004320332052EF2D7065004E0016C021E5F
:101B5800D8B0022A01C501F502C502F5120056C522
:101B68005AF557C55BF50601206B216B13D054C598
:101B780048F555C549F55A0E4A6E050E4B6E58C5BF
:101B88004CF559C54DF5A5EC03F048500601202742
:101B980049502123610068F5F6F461006CF5F7F40B
:101BA800000EF86E140EF76403D00800F55002D04A
:101BB80052EC05F00009DBE120C654F521C655F5C5
:101BC80012000550061003E00550061003E103500B
:101BD800F4EF10F01ED8DE50DE1011E01AD810EE27
:101BE80002F00550E1260650E222DE50E65CE6509F
:101BF800800A0B6EDE50800A0B58D8B0120020EE17
:101C080002F00550D9260650DA22DE2A000EDD221F
:101C1800000C20EE04F00550D9260650DA221200F6
:101C2800096A0A6A800E03140B6E7F0E041420D80A
:101C380004E1016A026A036A046A096A0A6A800E90
:101C480007140B6E7F0E081413D802E1A0EC03F002
:101C58000550011809E10650021806E1075003185B
:101C680003E10850041802E0D8901200D88012004E
:101C78000C6E09500A100B100C10120003C507F562
:101C880004C508F501C509F502C50AF50750056E32
:101C98000850066E074A082A610014F4F6F4610039
:101CA80018F4F7F4000EF86E610024F4D9F461001A
:101CB80028F4DAF4094A0A2A140EF76403D0080053
:101CC800F55002D052EC05F0DF6EDF50DFE1120074
:101CD800BE6ABF6AC06A1B0EC66E700EC76EC86841
:101CE80004011069F00E086F030E006F096B016B99
:101CF800116B026B0A6B126B370E036FF00E0B6FD2
:101D080013693F0E046FF00E0C6F1469100E020178
:101D1800106F040E726F040C0301D96BDA6BDB6B66
:101D2800DC6BDF6BE06BE56B200EE76FEC6B2D0E69
:101D3800EE6FEF6BF06BF16BF26BF46B530EF56FAC
:101D4800070EF66FF76BF86BF96BFA6B940EF36F7F
:101D5800B590AA80080E016E220E026EEBEF10F00D
:101D6800ACB2B7A20CD001D811000500FA6E06017A
:101D78007851FD6E7951FE6EFF6AFA501200ACB0D0
:101D8800B7A00CD001D811000500FA6E06017A51EF
:101D9800FD6E7B51FE6EFF6AFA501200AAB0B5A024
:101DA80011006EEC10F01100080E0501FF1904E196
:101DB800010E026E12D8A3970501FF2B080EFF191A
:101DC80005E1000E026E09D8A3871200090EFF195B
:101DD80001E1FF6BFF517DEF10F002C501F5013AFB
:101DE8000001A55101188F0B0118A56F1200BF0E35
:101DF800096E0A6807C50BF508C50CF509500B26CE
:101E08000A500C220C5005E11A0E0B5C02E2010E7E
:101E180001D0000E0D6E0E6A0D500E1006E0200E59
:101E28000710076E0850086E120007C507F508C5A9
:101E380008F512000A0EF66E220EF76E000EF86E06
:101E480009006100D4F3FFF501EE00F2720EEE6AAC
:101E5800E806FDE101EEF3F10C0EEE6AE806FDE19D
:101E68000401080E5D6F000E5E6F000E5F6F0001CB
:101E78002EEF10F0800E211A1AC501F51BC502F5C8
:101E88001CC503F51DC504F51EC505F51FC506F5DA
:101E980020C507F521C508F5D9EC05F001C51AF5E7
:101EA80002C51BF503C51CF504C51DF51200016E1E
:101EB80006017E51FDE0ACB204D0610004F4A3F247
:101EC80010D0AC92100E0501FE25A7EC0FF06100B2
:101ED80004F4DFF4FE2B070EFE6501D0FE6B06014D
:101EE8007E07AC821200010E076E200E0118021048
:101EF80011E0F70E036E046801C505F502C506F585
:101F08000350052604500622065003E1050E055C21
:101F180001E3076A07C501F5026A1200080E7E612F
:101F280010D0100E0501FD250ED8DF500201A36F59
:101F38000501FD2B070EFD6501D0FD6B06017E2B0B
:101F48001200AC921200D96EDA6A060EDA2212007A
:101F5800116A126A0BD010C503F5046A0EC505F59F
:101F68000FC506F5E5EC0DF0114A122A11500C24A4
:101F7800D96E12500D20DA6EDF50106E1050EBE162
:101F88001200BF0E036E046801C505F502C506F50B
:101F98000350052604500622065005E11A0E055C7A
:101FA80002E2010E01D0000E016E026A120001C5A4
:101FB80003F502C504F502D0014A022A610004F4BF
:101FC800D9F4610008F4DAF4DF50F6E10350015C5B
:101FD800016E04500258026E1200D00E036E04689F
:101FE80001C505F502C506F503500526045006226D
:101FF800065005E10A0E055C02E2010E01D0000E52
:10200800016E026A1200015003026100CCF305F56B
:102018006100D0F306F501500402F3500626025081
:102028000302F350062605C501F506C502F51200A0
:10203800FEEC10F0C5EC10F06CEC0EF0AAEC10F011
:10204800E6EC10F090EC0EF095EC10F08CEC0CF047
:1020580089EF10F01CEC10F0D68EB4EC10F00009EB
:10206800FCE0BE84F8EC10F00CEC0CF0BE94FBEC39
:1020780010F0F3D7AA0E5E6E050E5F6E546A556AAD
:10208800A8C556F5A9C557F55E0E586E050E596ECA
:10209800B3EF0DF0015002100310041002E0800E9F
:1020A800041A01C501F502C502F503C503F504C507
:1020B80004F51200080E0501FC25D96EDA6A060E31
:1020C800DA22A1C2DFF4FC2B070EFC6501D0FC6B01
:1020D800FA2B1200B59006017C517D11D8B412007C
:1020E8000500FA6E7C51FD6E7D51FE6EFF6AFA5056
:1020F8001200026E0001A48702C501F5013AA4513D
:1021080001188F0B0118A46F12000F0E0001A46FA5
:10211800050EA56F800EA66FA76BA96B880EA36F1F
:10212800880C040E206F1F6B216BF10E1D6F1C6B4A
:10213800B696F90E1E6FF90C026EF0EC10F000095D
:10214800FCE00250BDEC10F003001200620E00012A
:10215800AD6FAF6BB36B020EB16FB06BAC6B1200AF
:10216800010EB6A6000E016E015001E0B6960150B0
:102178001200016E610004F4ECF30301F38FF381A4
:1021880012000001636B646B656B666B676B686B51
:10219800120001C578F602C579F6120001C57AF673
:1021A80002C57BF6120001C574F602C575F6120069
:1021B80001C576F602C577F6120001C572F602C5AA
:1021C80073F61200800EA26F0A0EA06F0A0C01C5EA
:1021D8007CF602C57DF612000201B2BF010C000CAC
:1021E800026E02505BEF0FF003011E9F1200030105
:1021F8001E8F1200D69A12005EEF10F01200120025
:03220800120008B9
:10FF0A00005B5741524E494E475D205369676E6107
:10FF1A006C206973206E656172206F722061742093
:10FF2A006D6561737572656D656E74206C696D6956
:10FF3A0074732E0A0D0043616C63756C6174656499
:10FF4A00206761696E3A2025332E34660A0D005304
:10FF5A0069676E616C204F75742056616C75653ADD
:10FF6A00203078005369676E616C20496E205661B3
:10FF7A006C75653A2030780043616C63756C617406
:10FF8A006564206761696E3A20002E303631323559
:10FF9A00002E33313235002E38313235002E3536C7
:10FFAA003235002E34333735002E39333735002EAB
:10FFBA0031383735002E36383735002E3132350094
:10FFCA002E333735002E363735002E38373500496F
:10FFDA004E46004E414E00696E66006E616E002EFE
:10FFEA003235002E3735004E614E006C66002E30D9
:05FFFA00002E3500009F
:020000040020DA
:10000000FF0FFF0FFF0FFF0FFF0FFF0FFF0FFF0F80
:10001000FF0FFF0FFF0FFF0FFF0FFF0FFF0FFF0F70
:020000040030CA
:0A000000ECFFF7FF9FFFFFFFFFFF7B
:00000001FF
